:1000000000308A002D28000023308400831300086C
:10001000031918280130F800F701F70B0D28F80B29
:100020000C284A30F700F70B13281628800B0A28F3
:1000300008001230A402031C2C28243084008313EF
:10004000FC3080050310800C800C000803192C285C
:100050002A280000800B2928080003081F39830084
:10006000073083169C0083138312A201C830A100BD
:10007000831685148312851C4E282208033C031C1A
:100080004E28031D47282108E73C031C4E28023058
:10009000A1070318A20A6430A300042083160514E4
:1000A0008312051C6228A108031D5928A208031900
:1000B00062280230A1020030031C0130A202643029
:1000C000A30004202208A300A30AA30303196C2899
:1000D000FF30A400192065282108A40019208316E8
:1000E0000511831205150230A300042083160511A3
:0800F00083120511382863009A
:04400E00613FFF3FD0
:00000001FF
;PIC16F87
;CRC=9B1F  CREATED="17-lip-18 20:48"
